:100000000C94C5000C94ED000C94ED000C94ED00E4
:100010000C94ED000C94ED000C94ED000C94ED00AC
:100020000C94ED000C94ED000C94ED000C94ED009C
:100030000C94ED000C94ED000C94ED000C94ED008C
:100040000C94E1040C94ED000C9451050C942B05D8
:100050000C94ED000C94ED000C94ED000C94ED006C
:100060000C94ED000C94ED00506C65617365206597
:100070006E746572207669727475616C2064697340
:100080006B2066696C6520746F20626F6F743A2014
:100090000054686973206973206672656520736F08
:1000A0006674776172652C20616E6420796F7520AB
:1000B0006172652077656C636F6D6520746F207267
:1000C00065646973747269627574652069742075FA
:1000D0006E646572206365727461696E20636F6E11
:1000E000646974696F6E732E205365652047504CA8
:1000F0002D7633206C6963656E736500546869738F
:100100002070726F6772616D20636F6D6573207709
:10011000697468204142534F4C5554454C59204E08
:100120004F2057415252414E54592E00476974682E
:100130007562207265706F3A2068747470733A2F1C
:100140002F6769746875622E636F6D2F72617370AB
:10015000696475696E6F2F6176722D78383600612B
:1001600076722D783836202D20436F70797269674A
:100170006874202843292032303231204072617364
:1001800070696475696E6F00400A11241FBECFEF5D
:10019000D8E0DEBFCDBF23E0ACE2B1E001C01D92EC
:1001A000A338B207E1F711E0A0E0B1E0E2EDF9E138
:1001B00002C005900D92AC32B107D9F710E0C5EC42
:1001C000D0E004C02197FE010E94E00AC43CD107A0
:1001D000C9F70E9482050C94E70C0C940000089566
:1001E000AF92BF92CF92DF92EF92FF920F931F9345
:1001F000CF93DF936C017B018B01040F151FEB0183
:100200005E01AE18BF08C017D10759F06991D60139
:10021000ED91FC910190F081E02DC6010995892BAB
:1002200079F7C501DF91CF911F910F91FF90EF906A
:10023000DF90CF90BF90AF900895FC01538D448D17
:10024000252F30E0842F90E0821B930B541718F079
:1002500081509F4F089501970895FC01918D828DE3
:10026000981759F0A28DAE0FBF2FB11D5D968C91DE
:10027000928D9F5F928F90E008958FEF9FEF08958A
:10028000FC01918D828D981731F0828DE80FF11D60
:10029000858D90E008958FEF9FEF0895FC01918D7B
:1002A000828D981B892F90E0089582E691E00E944C
:1002B0004E0121E0892B09F420E0822F089580E08F
:1002C00090E0892B29F00E94550181110C940000C7
:1002D0000895FC01A48DA80FB92FB11DA35EBE4FD8
:1002E0009C91848D8F5F848FA689B7899C93A08908
:1002F000B1898C91837080648C93938D848D9813D5
:1003000006C00288F389E02D80818F7D8083089567
:100310000F931F93CF93DF93EC0181E0888F9B8D28
:100320008C8D981318C0E889F989808185FF13C0E6
:100330009FB7F894EE89FF896083E889F989808105
:100340008370806480839FBF81E090E0DF91CF91D4
:100350001F910F910895062F1B8D1F5F8C8D8113A8
:100360000CC00FB607FCFACFE889F989808185FFB8
:10037000F5CFCE010E946901F1CFEB8DEC0FFD2F7F
:10038000F11DE35EFE4F00839FB7F8941B8FEA894F
:10039000FB8980818062D6CF0F931F93CF93DF9329
:1003A0008C01D0E0C0E0F801EC0FFD1F64916623E2
:1003B00041F082E691E00E948801892B11F021969C
:1003C000F2CFCE01DF91CF911F910F910895CF937E
:1003D000DF93EC01888D8823B9F0AA89BB89E8896D
:1003E000F9898C9185FD03C0808186FD0DC00FB613
:1003F00007FCF7CF8C9185FFF2CF808185FFEDCF91
:10040000CE010E946901E9CFDF91CF9108950F934A
:100410001F93CF93DF93EC01E0912D01F0912E011A
:10042000198218820C811D812E813F8101301105B6
:100430002105310509F44DC086819781A085B185DC
:10044000081719072A073B0708F043C001151105D3
:100450002105310539F46081633021F40685178563
:1004600020893189088719872A873B87011511055B
:100470002105310529F1A9019801225031094109CD
:1004800051090297A109B109281739074A075B07E3
:10049000E0F4A281B0E00E946D0A028913892489E8
:1004A0003589060F171F281F391F0C871D872E87B8
:1004B0003F8790E080E0DF91CF911F910F910895E9
:1004C0000685178520893189F0CF00E010E098017A
:1004D000ECCF81E090E0EFCF8EBD0DB407FEFDCFF5
:1004E00008958FEF0E946C028EB50895FF920F93CE
:1004F0001F93CF93DF93C82FD42F152F062FF72EDE
:1005000080912C01811139C083E58CBD1DBCC7FFD2
:1005100009C040E050E0BA0187E70E9476028230CD
:1005200030F5CF772A9A0E9471022A980E947102B0
:100530008C2F0E946C028F2D0E946C02802F0E94D3
:100540006C02812F0E946C028D2F0E946C0285E943
:10055000C03421F087E8C83409F081E00E946C02C1
:10056000CAE00E94710287FF02C0C150D1F7DF913B
:10057000CF911F910F91FF90089580E58CBD81E090
:100580008DBDC5CFCF92DF92EF92FF920F931F9355
:10059000CF93DF936C01790180912C0183FD07C01B
:1005A00089E0440F551F661F771F8A95D1F781E5B3
:1005B0000E947602811108C0C0E4DCE90E94710249
:1005C0008F3F29F42197D1F7C1E0D0E01DC08E3FC5
:1005D000D9F7E701219718F00E947102FBCFE601DD
:1005E000C00ED11E0E9471028993CC15DD05D1F792
:1005F000C2E0D2E0C01BD10BCE19DF090E9471020C
:100600002197E1F7D0E0C0E02A9A0E947102CE0162
:10061000DF91CF911F910F91FF90EF90DF90CF90DE
:100620000895CF92DF92EF92FF920F931F93CF9393
:10063000DF93EC016A017B0102E010E02EEF31E074
:100640000E94C202892B31F58881998185359A4AA9
:1006500059F526E330E0B701A601CE010E94C2029F
:10066000892B29F4888199818634914489F002E0AC
:1006700010E022E530E0B701A601CE010E94C202DF
:10068000892BA1F481E0288139812634314419F481
:1006900080E001C083E0DF91CF911F910F91FF9027
:1006A000EF90DF90CF90089582E0F5CF81E0F3CF17
:1006B000FC0101900020E9F73197AF01481B590B6D
:1006C000BC0182E691E00C94F000CF93DF930E948E
:1006D000CC01EC0188E191E00E9458038C0F9D1F32
:1006E000DF91CF910895FC0180819181009711F0F5
:1006F0000C94820B08950F931F93CF93DF93EC011B
:1007000088819981009759F02A813B812617370704
:1007100030F081E0DF91CF911F910F9108958B010F
:100720006F5F7F4F0E940B0C009759F0998388836D
:100730001B830A832C813D81232B59F7FC011082F6
:10074000E8CF80E0E7CFEF92FF920F931F93CF9314
:10075000DF93EC017B018A01BA010E947B032881AF
:100760003981811114C02115310519F0C9010E9488
:10077000820B198218821D821C821B821A82CE0172
:10078000DF91CF911F910F91FF90EF9008951D83FE
:100790000C83B701C9010E94D10CF1CF0F931F93B5
:1007A000CF93DF93CDB7DEB7CC55D1090FB6F89410
:1007B000DEBF0FBECDBF88E690E00E94CC0182E68E
:1007C00091E00E944E01892BD1F369961FAE1EAEB7
:1007D00069976B961FAE1EAE6B976D961FAE1EAEE1
:1007E0006D9750E040E06AE171E0CE01895A9F4F79
:1007F0000E94A30382E691E00E944E01181619069A
:100800000CF0B8C082E691E00E942D018C018D3081
:10081000910509F4AFC00A9709F4ACC01A82198295
:100820001C821B821E821D8269966EAD7FAD699708
:100830006115710541F06D964EAD5FAD6D97CE01BE
:1008400001960E94A30362960FAF629763961FAE54
:1008500063970D811E810F5F1F4FB801CE01019676
:100860000E947B0329813A81882309F453C08D813A
:100870009E81BE016F5A7F4F820F931F0E94D10C41
:100880001E830D8363961FAE1EAE639765961FAEE3
:100890001EAE659767961FAE1EAE679769817A8117
:1008A0006115710539F04D815E81CE018F5A9F4FE0
:1008B0000E94A30369968EAD9FAD69970097C9F119
:1008C00063966EAD7FAD63976115710581F16B968F
:1008D0004EAD5FAD6B9767962EAD3FAD67974217F4
:1008E000530728F10E94D10C67968EAD9FAD679794
:1008F0006D969FAF8EAF6D9767961FAE1EAE6797D2
:10090000CE018F5A9F4F0E947303CE0101960E9421
:10091000730370CF2115310519F0C9010E94820BB4
:100920001A8219821E821D821C821B82ABCF0E94FA
:10093000820B63968EAD9FAD639769969FAF8EAF26
:10094000699765968EAD9FAD65976B969FAF8EAF9D
:100950006B9767968EAD9FAD67976D969FAF8EAF85
:100960006D9763961FAE1EAE639765961FAE1EAE63
:100970006597C2CF6D964EAD5FAD6D974115510530
:1009800069F04530510510F045E050E069966EADD4
:100990007FAD6997CE0101960E94D80CCE01895A8D
:1009A0009F4F0E94730390E080E0C45ADF4F0FB660
:1009B000F894DEBF0FBECDBFDF91CF911F910F9195
:1009C00008951F920F920FB60F9211242F933F9309
:1009D0008F939F93AF93BF9380915E0190915F013E
:1009E000A0916001B091610130915D0123E0230F7E
:1009F0002D3758F50196A11DB11D20935D018093FF
:100A00005E0190935F01A0936001B09361018091BA
:100A1000590190915A01A0915B01B0915C0101963E
:100A2000A11DB11D8093590190935A01A0935B01C0
:100A3000B0935C01BF91AF919F918F913F912F91A6
:100A40000F900FBE0F901F90189526E8230F029667
:100A5000A11DB11DD2CF1F920F920FB60F9211247C
:100A60002F933F934F935F936F937F938F939F93B6
:100A7000AF93BF93EF93FF9382E691E00E946901E9
:100A8000FF91EF91BF91AF919F918F917F916F9166
:100A90005F914F913F912F910F900FBE0F901F903C
:100AA00018951F920F920FB60F9211242F938F93C8
:100AB0009F93EF93FF93E0917201F0917301808116
:100AC000E0917801F091790182FD1AC090818091C6
:100AD0007B018F5F20917C01821741F0E0917B01C7
:100AE000F0E0EE59FE4F958F80937B01FF91EF91DF
:100AF0009F918F912F910F900FBE0F901F9018957F
:100B00008081F4CFCF93DF93CDB7DEB7C854D1093E
:100B10000FB6F894DEBF0FBECDBF789484B5826067
:100B200084BD84B5816084BD85B5826085BD85B591
:100B3000816085BD80916E00816080936E0010920F
:100B4000810080918100826080938100809181008A
:100B5000816080938100809180008160809380001B
:100B60008091B10084608093B1008091B000816079
:100B70008093B00080917A00846080937A008091A5
:100B80007A00826080937A0080917A0081608093FD
:100B90007A0080917A00806880937A001092C10078
:100BA000E0917201F091730182E08083E0916E0127
:100BB000F0916F011082E0917001F09171018FEC62
:100BC000808310927A01E0917601F091770186E0BE
:100BD0008083E0917401F091750180818061808350
:100BE000E0917401F0917501808188608083E091CB
:100BF0007401F0917501808180688083E0917401B7
:100C0000F091750180818F7D80838FE591E00E9456
:100C100065038CE291E00E9465038CEF90E00E94F6
:100C2000650381E990E00E94650310922E01109205
:100C30002D0180912C01882309F12A991FC080E0A1
:100C40000E946C0280E00E946C020E9471028F710F
:100C5000853089F409E813E170E9E72EFF24F39465
:100C60000E9471028F3F39F00150110921F0C70134
:100C70000197F1F7F5CF2A9A0E9471022A9A229AD7
:100C8000239A259A229A83E58CBD1DBC2A9A1AE0E4
:100C90000E9471021150E1F740E050E0BA0180E497
:100CA0000E947602182F813009F42AC110E01093B7
:100CB0002C012A9A0E947102112309F48EC140E08E
:100CC00050E0BA01CE0101960E941103812C912CB3
:100CD00054018130E1F400E110E02EEB31E040E01E
:100CE00050E0BA01CE0101960E94C202892B09F0A0
:100CF00074C18D81882309F470C189849A84AB847E
:100D0000BC84B501A401CE0101960E941103833079
:100D100009F463C1811161C104E210E02DE030E00B
:100D2000B501A401CE0101960E94C202892B09F0EF
:100D300054C12A853B8550E040E02115310541052D
:100D4000510521F4288D398D4A8D5B8DAC81B0E041
:100D50000E946D0A2B013C014A815B8170E060E0DA
:100D6000840E951EA61EB71E8092390190923A01FC
:100D7000A0923B01B0923C01E981E09331018D8169
:100D80009E819093340180933301CF80D884F12CDD
:100D9000E12CC114D104E104F10421F4CC88DD88F4
:100DA000EE88FF8824E0969587952A95E1F78C01D7
:100DB00030E020E029960CAF1DAF2EAF3FAF299752
:100DC000C41AD50AE60AF70AC701B60164197509FB
:100DD00086099709601B710B820B930B2E2F30E055
:100DE00050E040E00E94BE0ADA01C9010296A11D4E
:100DF000B11D8093350190933601A0933701B093D4
:100E0000380161E0873F1FE09107A105B10508F0B7
:100E100060E0265F3F40410951092F3F3F4E4105A9
:100E2000510508F4C2C2873FEFEF9E07A105B10547
:100E300008F4C5C083E080932F0188A199A1AAA1DD
:100E4000BBA180933D0190933E01A0933F01B093DD
:100E5000400129960CAD1DAD2EAD3FAD2997800EFA
:100E6000911EA21EB31E480C591C6A1C7B1C40928A
:100E700041015092420160924301709244011092EC
:100E800030018FE291E090932E0180932D0181E457
:100E9000282E312C2C0E3D1E1FEF211A310A0E94E4
:100EA000CE0380902D0190902E018114910429F1A0
:100EB000D40111961C92E5E3F0E0EC0FFD1FF8A7BA
:100EC000EFA39C016901D9018C912F5F3F4F8032C4
:100ED000C9F38F3209F4690119A61AA61BA61CA62C
:100EE000F6018081803208F02BC2CE0185960E94E7
:100EF00007021982892B09F486C20E94CE03CFCF44
:100F00004AEA51E060E070E088E40E9476028130B5
:100F100091F58E010F5F1F4F6E0125E0C20ED11CAF
:100F200078010E947102D7018D937D01AC15BD053A
:100F3000C1F78B81813009F0B9CE8C818A3A09F0F2
:100F4000B5CE50E1C52E57E2D52E60E9A62EBB24C2
:100F5000B39440E050E060E070E489EE0E947602D5
:100F6000882309F401C2C5010197F1F7B1E0CB1A5A
:100F7000D10879F79BCE40E050E0BA0189EE0E949B
:100F8000760201E4823010F412E009EE30E1E32E43
:100F900037E2F32E40E9C42EDD24D39440E050E044
:100FA000BA01802F0E947602882309F4F3C1C6019A
:100FB0000197F1F7F1E0EF1AF10881F777CE873F5B
:100FC0009F40A105B10548F460932F01D301C201F0
:100FD000880D991DAA1DBB1D34CF8BE191E00E94A5
:100FE000580383E291E00E94580388E191E00E9457
:100FF0005803FFCF20E0E0E088E0E6C1C30ED11C3B
:1010000081E0913208F080E01B968C93CE018596AA
:101010000E940702892B09F070CF2DA13EA12F70ED
:10102000332705E0220F331F0A95E1F749A95AA992
:101030006BA97CA900E210E0CE0101960E94C202D9
:10104000892B09F05ACF8981882309F456CF8C85E2
:1010500083FD13C00FA118A59E012F5F3F4FD8013C
:10106000A801455F5F4F4A175B0709F4C6C1F90144
:1010700061919F019D916917B1F3ADA0BEA0FFEFF3
:10108000AF1ABF0A09F439CF89A99AA9ABA9BCA99B
:101090000097A105B10509F430CF95012F703327D2
:1010A000232BE1F4E0902D01F0902E010196A11D7B
:1010B000B11D89AB9AABABABBCAB4DA45EA46FA426
:1010C00078A8411451046104710459F4D7011496AD
:1010D0008D919C91A816B90608F00FCFBEA2ADA2C3
:1010E0009CCFF70182818150990B950114E03695D0
:1010F00027951A95E1F782239323892B79F7F2E05C
:101100004F1651046104710408F4F7CEF70186818B
:101110009781A085B185481659066A067B0608F0B6
:10112000ECCE8081823009F4A4C0833009F4C0C0C1
:10113000813009F0E2CEA20156954795440D551D28
:101140009A013170452F55274695CA01B0E0A0E0BD
:1011500029968CAF9DAFAEAFBFAF2997428553851F
:1011600064857585480F591F6A1F7B1F2F3F91E0CB
:10117000390709F455C002E010E0CE018F5B9F4FA4
:101180000E94C202892B09F0B8CE23962EAD3FAD46
:10119000239740FE6CC0E4E036952795EA95E1F789
:1011A000A90170E060E0423051056105710508F465
:1011B000A4CEF70186819781A085B185481759078C
:1011C0006A077B0708F099CE4DA75EA76FA778AB9B
:1011D000E0912D01F0912E019A01AB0122503109CD
:1011E0004109510986819781A085B1850297A1099E
:1011F000B109281739074A075B0708F081C0A281A7
:10120000B0E00E946D0A0289138924893589060F8E
:10121000171F281F391F09AB1AAB2BAB3CAB5ECF96
:1012200001E010E02FEF31E0CE018F5B9F4F0E9475
:10123000C202892B09F061CED7011A964D915D91BA
:101240006D917C911D974F5F5F4F6F4F7F4F299638
:101250000CAD1DAD2EAD3FAD2997400F511F621F44
:10126000731F01E010E030E020E0C10189CF3F7042
:1012700097CF92013327220F331F452C562C672C12
:1012800077244285538564857585440D551D661DFB
:10129000771D02E010E0CE018F5B9F4F0E94C202DB
:1012A000892B09F02ACE23964EAD5FAD239779CFD7
:1012B00092012F773327220F331F220F331F57E05E
:1012C00076946794579447945A95D1F742855385FD
:1012D00064857585440D551D661D771D04E010E07D
:1012E000CE018F5B9F4F0E94C202892B09F005CE71
:1012F00025964CAD5DAD6EAD7FAD25977F7053CF1C
:1013000000E010E0980187CF84FFF7CDE0912D0138
:10131000F0912E0180818330F9F48D899E89B0E0AF
:10132000A0E0DC01992788274B8D5C8D70E060E0A0
:10133000842B952BA62BB72B89A79AA7ABA7BCA765
:10134000AFA1B8A5FD01CD010B968E179F0709F43B
:1013500051CE00E20193F9CF80E090E0DC01E4CFD0
:1013600080E090E0DC0165C040E050E0BA018AE72F
:101370000E94760281119ACC0E947102F801819339
:101380008F01EE15FF05C1F789811CE086FD8FCC2A
:1013900014E08DCC40E052E060E070E080E50E9417
:1013A0007602882309F483CC81CC62E0873F9F4F8B
:1013B000A105B10508F408CE3DCD883009F01ECE58
:1013C0009BE0282FE32F892F31E03E0FEC0DFD2D00
:1013D000F11D9081913208F411CE9F3209F40ECEA6
:1013E0009E3259F3281708F009CEFD01E20FF11DD6
:1013F0009083982F81E0820FE4CFD8011B969C91B7
:10140000992309F481CF8981882309F476CD8C85CD
:1014100084FD73CDE0912D01F0912E018081833008
:1014200009F09ECF8D899E89B0E0A0E0DC0199276C
:1014300088274B8D5C8D70E060E0842B952BA62B6C
:10144000B72BF401868F978FA0A3B1A38D8D9E8DAE
:10145000AF8DB8A1828F938FA48FB58F168A178A0C
:10146000108E118E81E0818300E010E001151105DE
:10147000E9F30E9455018823C9F30E940000F6CFCA
:10148000E2E6F1E01382128288EE93E0A0E0B0E0A1
:1014900084839583A683B7838AE091E091838083D8
:1014A00085EC90E09587848784EC90E09787868729
:1014B00080EC90E0918B808B81EC90E0938B828B21
:1014C00082EC90E0958B848B86EC90E0978B868BFA
:1014D000118E128E138E148E08950E94AF0AA59F4E
:1014E000900DB49F900DA49F800D911D112408951F
:1014F0002F923F924F925F926F927F928F929F9224
:10150000AF92BF92CF92DF92EF92FF920F931F9311
:10151000CF93DF93CDB7DEB7CA1BDB0B0FB6F894C2
:10152000DEBF0FBECDBF09942A88398848885F8402
:101530006E847D848C849B84AA84B984C884DF8073
:10154000EE80FD800C811B81AA81B981CE0FD11D57
:101550000FB6F894DEBF0FBECDBFED010895A29F78
:10156000B001B39FC001A39F700D811D1124911D77
:10157000B29F700D811D1124911D0895A1E21A2EB4
:10158000AA1BBB1BFD010DC0AA1FBB1FEE1FFF1F27
:10159000A217B307E407F50720F0A21BB30BE40B77
:1015A000F50B661F771F881F991F1A9469F76095BE
:1015B0007095809590959B01AC01BD01CF01089578
:1015C000EE0FFF1F0590F491E02D09940F931F93E8
:1015D000CF93DF938230910510F482E090E0E091A8
:1015E0008103F091820330E020E0B0E0A0E030978A
:1015F00099F42115310509F44AC0281B390B243010
:101600003105D8F58A819B816115710589F1FB014E
:1016100093838283FE0111C0408151810281138135
:1016200048175907E0F04817590799F4109761F0E7
:1016300012960C93129713961C933296CF01DF915A
:10164000CF911F910F91089500938103109382030E
:10165000F4CF2115310551F04217530738F0A90195
:10166000DB019A01BD01DF01F801C1CFEF01F9CF24
:101670009093820380938103CDCFFE01E20FF31F8D
:10168000819391932250310939832883D7CF2091B8
:101690007F0330918003232B41F42091020130918C
:1016A00003013093800320937F0320910001309148
:1016B00001012115310541F42DB73EB740910401D8
:1016C00050910501241B350BE0917F03F0918003BD
:1016D000E217F307A0F42E1B3F0B2817390778F009
:1016E000AC014E5F5F4F2417350748F04E0F5F1F68
:1016F0005093800340937F03819391939FCFF0E0B9
:10170000E0E09CCFCF93DF930097E9F0FC013297A4
:1017100013821282A0918103B0918203ED0130E027
:1017200020E01097A1F420813181820F931F209136
:101730007F03309180032817390709F061C0F093C7
:101740008003E0937F03DF91CF910895EA01CE17E4
:10175000DF07E8F54A815B819E0141155105B1F72C
:10176000E901FB83EA8349915991C40FD51FEC1716
:10177000FD0761F4808191810296840F951FE90134
:1017800099838883828193819B838A83F0E0E0E060
:1017900012968D919C9113970097B9F52D913C91DC
:1017A0001197CD010296820F931F20917F033091F4
:1017B00080032817390739F6309751F510928203C4
:1017C00010928103B0938003A0937F03BCCFD38397
:1017D000C28340815181840F951FC817D90761F4D6
:1017E0004E5F5F4F88819981480F591F5183408315
:1017F0008A819B81938382832115310509F0B0CFC3
:10180000F0938203E09381039ECFFD01DC01C0CF02
:1018100013821282D7CFB0E0A0E0E1E1FCE00C94AB
:101820007A0A8C01009751F4CB010E94E60A8C01E0
:10183000C801CDB7DEB7E0E10C94960AFC01E60FD3
:10184000F71F9C0122503109E217F30708F49DC0ED
:10185000D901CD91DC911197C617D70798F0C53003
:10186000D10530F3CE0104978617970708F3C61BFE
:10187000D70B2297C193D1936D937C93CF010E9494
:10188000820BD6CF5B01AC1ABD0A4C018C0E9D1E9B
:10189000A0918103B0918203512C412CF12CE12CB9
:1018A000109731F580917F039091800388159905F9
:1018B00009F05CC04616570608F058C08091000138
:1018C00090910101009741F48DB79EB740910401BA
:1018D00050910501841B950BE817F90708F055C0D6
:1018E000F0938003E0937F03F90171836083A0CFBD
:1018F0008D919C91119712966C90129713967C90F3
:101900001397A815B90559F56C0142E0C40ED11C16
:10191000CA14DB0420F1AC014A195B09DA01129602
:10192000159780F06282738251834083D9016D9351
:101930007C93E114F10471F0D7011396FC93EE93BC
:10194000129776CF22968C0F9D1FF9019183808389
:10195000F301EFCFF0938203E093810369CF481640
:10196000590608F42C017D01D3019ACFCB010E94C6
:10197000E60A7C01009749F0AE01B8010E94C80C4C
:10198000C8010E94820B870153CF10E000E050CFC6
:10199000FB01DC0102C001900D9241505040D8F78C
:1019A0000895FB01DC0101900D920020E1F70895FC
:1019B000FB01DC014150504048F001900D920020A5
:1019C000C9F701C01D9241505040E0F70895F894C6
:0219D000FFCF47
:1019D200000083038000000000008801F0001D0168
:1019E200E7014E012D0140010D0A004572726F722E
:0C19F2003A200070665F6D6F756E740027
:00000001FF
